:020000040800F2
:10000000E8040020B10100082B160008C5150008FF
:1000100029160008F103000821190008000000005B
:100020000000000000000000000000002F16000883
:10003000F3030008000000002D1600083116000828
:10004000CB010008CB010008CB010008CB01000860
:10005000CB010008CB010008CB010008CB01000850
:10006000CB010008CB010008CB010008CB01000840
:10007000CB010008CB010008CB010008CB01000830
:10008000CB010008CB010008BD0200080000000001
:10009000000000000000000000000000CB0100088C
:1000A000CB010008CB010008CB010008CB01000800
:1000B000CB010008CB010008CB010008CB010008F0
:1000C000CB010008CB010008CB010008CB010008E0
:1000D000CB010008CB01000809190008000000004E
:1000E000CB010008CB010008CB0100080000000094
:1000F000000000000000000000000000CB0100082C
:1001000000000000CB010008CB010008CB01000873
:1001100000000000000000000000000000000000DF
:10012000CB010008CB010008CB010008CB0100087F
:10013000CB010008000000000000000000000000EB
:10014000000000000000000000000000CB010008DB
:10015000CB010008CB010008CB01000815190008ED
:10016000CB010008CB0100080000000000000000E7
:10017000000000000000000000000000000000007F
:1001800000000000CB01000800000000000000009B
:10019000CB010008CB010008DFF810D000F07CF89C
:1001A0000048004761190008AFF30080E804002010
:1001B0000648804706480047FEE7FEE7FEE7FEE701
:1001C000FEE7FEE7FEE7FEE7FEE7FEE7C5160008EE
:1001D000990100082DE9F05F0546002092469B46F4
:1001E00088460646814640241BE02846414647464D
:1001F000224600F041F853465A46C01A914110D3A6
:1002000011461846224600F028F82D1A67EB01081F
:100210004F4622460120002100F01FF817EB00098D
:100220004E41201EA4F10104DFDC484631462A4637
:100230004346BDE8F09FD2B201E000F8012B491E11
:10024000FBD270470022F6E710B513460A46044673
:100250001946FFF7F0FF204610BD202A04DB203AA4
:1002600000FA02F1002070479140C2F1200320FA09
:1002700003F3194390407047202A04DB203A21FA07
:1002800002F00021704721FA02F3D040C2F12002AF
:100290009140084319467047064C074D06E0E06858
:1002A00040F0010394E8070098471034AC42F6D3BD
:1002B000FFF776FF541A0008741A0008014800F08E
:1002C00061B9000018000020464910B54A6822F4C0
:1002D00040324A604A6843681A434A6001684A6883
:1002E00022F480724A6001684A68036942EA032284
:1002F0004A6001684A6822F040724A6001684A68B0
:1003000083681A434A6001688A6822F400628A603E
:1003100001688A68C3681A438A60816A6FF07062F4
:10032000D14201688A6822F070628A6001688A6836
:100330000CD0836A1A438A6001688A6822F04052AE
:100340008A6001688A68C36A1A4301E022F0405259
:100350008A6001688A6822F002028A6001688A68FD
:10036000037E42EA43028A6090F820100029016867
:100370004A680FD042F400624A6001684A6822F479
:1003800060424A6001684A68174C436A04EB433391
:100390001A4301E022F400624A600168CA6A22F44A
:1003A0007002CA620168CA6A838B104C04EB035363
:1003B0001A43CA6201688A6822F400728A6001687E
:1003C0008A6890F8303042EA43228A6001688A687D
:1003D00022F480628A6001688A68406942EA80206B
:1003E000886010BD0023014000E0FFFF0000F0FF27
:1003F000FEE770477047000078B50024009490F83D
:100400003C20012A19D0012280F83C200A680723E9
:100410000568092A13D9EE680A3A02EB42029340B2
:100420009E43EE600B788A680A3B03EB43039A40D5
:100430000368DD682A43DA6010E0022078BD2E6987
:1004400002EB420293409E432E610B788A6803EBD5
:1004500043039A4003681D692A431A614A681F23AF
:10046000072A13D205686E6B521E02EB820293407C
:100470009E436E630A8893B20A79521E02EB82028F
:1004800093400268556B2B43536327E005680D2AA0
:1004900012D22E6BD21F02EB820293409E432E6338
:1004A0000B790A88DB1F92B203EB83039A4003683F
:1004B0001D6B2A431A6311E0EE6A0D3A02EB8202C9
:1004C00093409E43EE620B790A880D3B92B203EB98
:1004D00083039A400368DD6A2A43DA621B4B05688E
:1004E000194A9D420AD10D68122D07D1556825F48D
:1004F00000055560556845F48005556005689D42C6
:100500001DD1134D0B68AB4201D0112B17D153688D
:1005100023F480035360536843F400035360096875
:10052000A9420CD10B490C4A0968B1FBF2F101EB6D
:100530008101490000E0491E00910029FBD180F8AB
:100540003C40002078BD0000002301400020014015
:10055000120000101400002040420F0010B5054AA0
:1005600001681268914203D100F009F802498880BD
:1005700010BD000018000020000000207047006837
:10058000C06C704770B50446006801684268C1F3EA
:100590004001C2F3401251B34AB3216CC90603D4DF
:1005A000216C41F400712164816811F0405F17D122
:1005B000217EA9B9C16A11F4700F02D08168490582
:1005C0000ED4416821F020014160206C20F480703D
:1005D0002064206CC00403D4206C40F0010020642F
:1005E0002046FFF7BBFF21686FF01200086020680B
:1005F00001684268C1F38001C2F3C01289B382B3BB
:10060000216CC90603D4216C41F400512164816836
:1006100011F4401F1ED1816B11F4401F02D081687C
:10062000490517D44168490514D4816811F0405F29
:1006300010D1217E71B9416821F080014160206CA8
:1006400020F480502064206CC00503D4206C40F05E
:10065000010020642046FFF7CDFE21686FF00C00FA
:10066000086020680168426811F0010FC2F380122F
:100670000ED06AB10068C0070AD0206C40F4803008
:100680002064204600F046F821686FF00100086001
:10069000206801684268C1F34011C2F380620029FA
:1006A0000DD0002A0BD0616C41F0020161646FF043
:1006B000200505602046FFF761FF2068056070BDDA
:1006C00070B504004FF0000503D0206C002610B177
:1006D00007E0012070BD204600F01EF8666484F833
:1006E0003C60206CC00610D4206C20F4885040F090
:1006F000020020642046FFF7E7FD6664206C20F0CE
:10070000020040F00100206400E0012584F83C6014
:10071000284670BD7047000010B586B0044614210D
:100720006846FFF78FFD15492068884224D1144898
:100730000021026842F480720260006800F4807058
:1007400005900F481438026842F001020260006808
:1007500000F001000590012000900320CDE9010187
:100760006946084800F0EAF800221146122000F01D
:1007700041FA122000F030FA06B010BD002001400E
:10078000443802400000024018B50021009190F862
:100790003C20012A07D0012280F83C20026893689F
:1007A000DB0702D011E0022018BD936843F001037B
:1007B0009360274A274B1268B2FBF3F202EB420226
:1007C00000E0521E0092002AFBD102689368DB070A
:1007D00033D0036C40F20164A34343F48073036499
:1007E00053685B0505D5036C23F4005343F4805331
:1007F0000364036CDB0404D5436C23F006034364F9
:1008000000E0416480F83C10134B6FF0220111604E
:1008100001684A68114C22434A6059680068C90659
:1008200002D00F49884210D1816811F0405F0CD18D
:10083000816841F08041816007E0016C41F0100166
:100840000164416C41F001014164002018BD0000C9
:100850001400002040420F0000230140200000044B
:10086000002001402DE9F0410446876D00F054F965
:10087000064694F835000025022806D080206065E1
:1008800084F834500120BDE8F0812068016821F02F
:10089000160101602068416921F080014161206CEE
:1008A00008B9A06C20B12068016821F0080101603E
:1008B0002068016821F0010101600BE000F02CF9D3
:1008C000801B052806D92020606504F8345F0320CA
:1008D0006070D8E720680068C007EFD194F85C101A
:1008E0003F208840B86004F8345F01206070002029
:1008F000C9E790F83510022903D080214165012015
:100900007047052180F835100068016821F0010169
:10091000016000207047000070B5044600F0FCF84C
:100920000546601C02D004480078044400F0F4F846
:10093000401BA042FAD370BD080000202DE9F84FFB
:10094000DFF8B4A1002201240AF1040B03254FF0C3
:100950000F090BF1040E00BF0B6804FA02F63340D6
:10096000B34272D10F7907F00307012F01D0022F94
:1009700016D187684FEA420805FA08FC27EA0C07F7
:10098000D1F80CC00CFA08FC4CEA070CC0F808C0FF
:100990004768B7430E79C6F3001696403E4346605B
:1009A0000E79F643B6070DD0C768560005FA06FC67
:1009B00027EA0C07D1F808C00CFA06FC4CEA070C31
:1009C000C0F80CC00E7906F00306022E10D1D6082E
:1009D00000EB8608D8F8206057074FEAD76C09FA71
:1009E0000CF7BE430F6907FA0CF73743C8F82070BD
:1009F00006684FEA420C05FA0CF7BE430F7907F080
:100A0000030707FA0CF7374307604E68F6006DD509
:100A10003A4E376847F480473760366822F003075C
:100A200006F480460096364E07EB060CDCF80868A4
:100A300097073F0F09FA07F826EA0806DFF8C4808F
:100A4000404503D14FF000081EE04FE0DFF8B880CA
:100A5000404502D14FF0010816E0DFF8B080404574
:100A600002D14FF002080FE0DFF8A480404502D128
:100A70004FF0030808E0DFF89C80404502D14FF0BA
:100A8000040801E04FF0070808FA07F848EA0608EA
:100A9000CCF80888DAF800605746D1F804C09E43C5
:100AA0005FEACC3C00D51E433E60DBF800605F4649
:100AB000D1F804C09E435FEA8C3C00D51E433E60E3
:100AC000DEF800607746D1F804C09E435FEACC2C84
:100AD00000D51E433E60084F0C373E68D1F804C075
:100AE0009E435FEA8C2C00D51E433E60521C102AA8
:100AF000FFF432AFBDE8F88F003C014044380240BB
:100B000000300140000002400004024000080240A2
:100B1000000C02400010024001488068704700004D
:100B20000800002002488168027811448160704703
:100B3000080000200B4810B5016841F40071016005
:100B4000016841F480610160016841F480710160D5
:100B5000032000F06FF8002000F006F800F024F801
:100B6000002010BD003C024070B50D4D04464FF40E
:100B70007A712878B1FBF0F00A490968B1FBF0F00E
:100B800000F00AFB48B9102C07D200222146501E63
:100B900000F030F800206C6070BD012070BD0000D6
:100BA00008000020140000200A4808B5016841F43C
:100BB00080410160006800F4804000900548001FFB
:100BC000016841F080510160006800F080500090A1
:100BD00008BD000044380240002809DB00F01F0275
:100BE000012191404009800000F1E020C0F800118F
:100BF00070470000F0B40E4B1B680C46C3F3022391
:100C0000C3F10705042D00D90425191D072901D2B8
:100C1000002300E0DB1E012606FA05F1491E2140F3
:100C200099409E40761E16403143F0BC00F079BEDC
:100C30000CED00E0064900F0070208684FF6FF03DC
:100C4000184040EA0220034A104308607047000041
:100C50000CED00E00000FA052DE9F0470E46050016
:100C600065D0DFF81481D8F80000F7B200F0070073
:100C7000B04207D288F80070D8F8000000F00700F2
:100C8000B04254D128683D4C810712D5400703D5A6
:100C9000206840F4E05020602878000703D52068E1
:100CA00040F4604020602068A96820F0F00008430C
:100CB00020602878C0072DD030496868083901289D
:100CC00012D0022813D0032811D0096889070029FF
:100CD0002DDA216821F0030101432160FFF71CFF99
:100CE000814641F2883A0EE009688903EFE7096816
:100CF0008901ECE7FFF710FFA0EB0901514502D98C
:100D00000320BDE8F0872068696800F00C00B0EBB4
:100D1000810FEFD1D8F80010404601F00701B14231
:100D200007D90770006800F00700B04201D0012029
:100D3000E7E72878400705D52068E96820F4E05007
:100D4000084320602878000706D52068296920F428
:100D5000604040EAC100206000F038F82168084A8D
:100D6000C1F30311515CC840064908600648006899
:100D7000FFF7FAFE0020C4E7003C024008380240BA
:100D80003C1A0008140000200C000020044805490B
:100D900000680968044AC1F38221515CC840704769
:100DA00014000020083802404C1A00080448054985
:100DB00000680968044AC1F34231515CC840704779
:100DC00014000020083802404C1A0008154810B5DD
:100DD000006810F00C02144813D04110042A0FD000
:100DE000082A0ED10F4C241F2268236802F03F020C
:100DF0005B0207D52068C0F38810A0FB010106E064
:100E0000084610BD2168C1F38811A1FB0001002331
:100E1000FFF7E0F92168C1F30141491C4900B0FB2B
:100E2000F1F010BD083802400024F4002DE9F84F1D
:100E300004006ED02078DFF84C93C007A9F10405B8
:100E40004AD009F104000168C1F38101012908D0E9
:100E50000068C0F3810002280AD1D9F800004002DE
:100E600006D52868800337D560680028E1D033E0D4
:100E70006068B0F5803F10D0B0F5A02F286810D082
:100E800020F480302860286820F480202860606882
:100E9000A8B1FFF741FE06460DE0286840F4803017
:100EA000F4E740F480202860F7E700BFFFF734FE46
:100EB000801B642873D828688003F7D50CE0FFF7FF
:100EC0002BFE064605E000BFFFF726FE801B6428C8
:100ED000F0D828688003F7D42078DFF8AC82800748
:100EE0004FF0000A3ED5A748001D016811F00C0F15
:100EF00008D00068C0F3810002280BD1D9F80000A7
:100F0000400207D42868800716D5E068012800D180
:100F100012E033E1E068B8B10120C8F80000FFF743
:100F2000FBFD064605E000BFFFF7F6FD801B02282B
:100F3000C0D828688007F7D52868216920F0F80014
:100F400040EAC10028600DE0C8F800A0FFF7E4FD0A
:100F5000064604E0FFF7E0FD801B02281FD8286842
:100F60008007F7D42078000722D5864F874861692B
:100F7000703771B101210160FFF7CEFD064604E034
:100F8000FFF7CAFD801B022809D838688007F7D50B
:100F90000EE0C0F800A0FFF7BFFD064605E082E0C6
:100FA000FFF7BAFD801B02287DD838688007F7D488
:100FB0002078400768D5DFF8CCB100270BF13C0B57
:100FC000DBF80000C0000BD4DBF8001041F08051CA
:100FD000CBF80010DBF80000012700F080500090F3
:100FE0006B4E3068C00510D4306840F480703060BB
:100FF000FFF792FD009005E0FFF78EFD0099401A83
:10100000022850D83068C005F6D55E4EA0686C3610
:1010100001280FD00528306810D020F00100306082
:10102000306820F004003060A068B8B1FFF774FDAC
:1010300000900FE0306840F00100F4E740F0040059
:101040003060F7E7FFF768FD0099411A41F28830F8
:10105000814266D830688007F4D50EE0FFF75CFD6A
:10106000009007E0FFF758FD0099411A41F28830DF
:10107000814256D830688007F4D42FB1DBF80010D5
:1010800021F08051CBF80010A069C8B33D49091D7B
:101090000968C1F3810102294AD00228504607D0CD
:1010A000C8F8600000E03CE0FFF736FD04463BE096
:1010B0004746C8F86000FFF72FFD064605E000BF71
:1010C000FFF72AFD801B02282BD828688001F7D45F
:1010D000D4E907010843A16A2E4A490802EB0141FD
:1010E000626A41EA8211084394F82C1040EA0161D7
:1010F000C9F8001001203866FFF70EFD044606E02F
:101100003EE000BFFFF708FD001B022809D8286851
:101110008001F7D534E000BFFFF7FEFC001B02287A
:1011200002D90320BDE8F88F28688001F4D427E0B5
:101130000128F7D0D9F80000E26900F4800191425B
:101140001CD1226A00F03F01914217D147F6C071CD
:10115000626A0140B1EB821F10D1A26A4FF0FF33E7
:1011600000F4403103EB5202B1EB024F06D194F888
:101170002C1000F07060B0EB016F01D00120D1E7BE
:101180000020CFE70438024000004742800E47426B
:10119000007000400000FFFF10B5401EB0F1807FDE
:1011A00001D3012010BD4FF0E02460610F216017D2
:1011B00000F0B7FB0020A06107202061002010BDD7
:1011C00070477047F8B5026804461068D1685369E3
:1011D00010F00F0F4FF0000553D003F0010601F49B
:1011E000907737435FD0C20705D0CA0503D5226C7C
:1011F00042F001022264420705D5DA0703D0226CCF
:1012000042F002022264820705D5DA0703D0226C7D
:1012100042F004022264020707D501F020023243A3
:1012200003D0226C42F008022264226C002A34D0DF
:10123000800604D5880602D5204600F06BFA2068A7
:101240004069216CC0F38010090700D430B32046F8
:1012500000F048FA2068416949061BD5416921F030
:1012600040014161A06BA8B159490165A06BFFF72E
:1012700040FB002811D0A06B016D01B0BDE8F0402B
:10128000084783060FD58B060DD52046BDE8F840EC
:1012900000F040BA2046FFF794FFF8BD2046FFF764
:1012A00090FF2564F8BD266B2023012E53D1C6067E
:1012B00051D5CE064FD51068506800905069400651
:1012C0002BD5A16B086840680004000CEAD0A68DFD
:1012D0008642E7D9E085C869B0F5807F18D0D0682C
:1012E00020F48070D0602068416921F001014161E3
:1012F0002068416921F04001416184F83E30256356
:101300002068C16821F01001C160A06BFFF7AAFA44
:10131000A08DE18D401A81B219E0A08DE18D401AB7
:1013200081B2E08D0028BDD00029BBD0D06820F468
:101330009070D0602068426922F00102426184F816
:101340003E3025632068C26822F01002C260204649
:10135000FFF736FFF8BD05062BD50D0629D594F805
:101360003D002128F6D1A068B0F5805F01D1206949
:10137000B0B1206A411C2162216800784860E08C8D
:10138000401E0004000CE084E4D12068C16821F014
:101390008001C1602068C16841F04001C160F8BDB2
:1013A000206A0088C0F308005060206A801C206218
:1013B000E5E74006F3D54806F1D5D168204621F08F
:1013C0004001D16084F83D3000F0FBF8F8BD00002A
:1013D000D516000870B5040004D094F83D0000252F
:1013E00010B106E0012070BD84F83C50204600F0AA
:1013F00023F8242084F83D002068C16821F40051BE
:10140000C160204600F0DEF92068016921F49041B6
:1014100001612068416921F02A0141612068C168A9
:1014200041F40051C1602564202084F83D0084F817
:101430003E00002070BD000030B587B00446142186
:101440006846FEF7FFFE2B4D226800212A48022342
:101450000324AA4223D1284A1032156845F40035E6
:101460001560126802F400320592026842F001022F
:1014700002600068CDE9021400F0010005900C2024
:10148000CDE900030720049069461C48FFF756FA8F
:10149000002211462620FFF7ADFB262025E0184D3F
:1014A000AA4224D1144A1432156845F0200515606B
:1014B000126802F020020592026842F00402026003
:1014C0000068CDE9021400F004000590C020CDE9C9
:1014D00000030820049069460A48FFF72FFA00220B
:1014E00011464720FFF786FB4720FFF775FB07B043
:1014F00030BD00000044004030380240000002408F
:10150000001401400008024090F83E30202B0ED11C
:1015100059B152B190F83C30012B08D0012380F82A
:101520003C300023036300F0D3B901207047022050
:101530007047000010B511490446006809688842E8
:1015400004D101220E490D48FFF7DEFF0B49206848
:101550004431096888420FD1094908480122491ECF
:10156000443000F00FF8064904480122491EBDE846
:1015700010404430FFF7C8BF10BD000060000020DD
:101580000200002090F83D30202B18D1A9B1A2B163
:1015900090F83C30012B12D001628284C284002179
:1015A0000164212280F83D2080F83C100068C16869
:1015B00041F08001C1600020704701207047022087
:1015C00070477047FEE700007FB500241448009480
:1015D0000194029411490394C0E900148460012528
:1015E0000461057680F820400E49C0E90A14C561FF
:1015F000C46080F830404561FFF762F808B172B608
:10160000FEE706200094CDE9015069460448FEF744
:10161000F3FE002801D072B6FEE77FBD0020014036
:10162000180000200100000FFEE7FEE7704770473A
:10163000FFF778BA30B593B030216846FEF702FE66
:1016400014210CA8FEF7FEFD1C480025016841F09E
:1016500080510160006800F08050119018480168C6
:1016600041F4404101600068022400F440401190C0
:1016700001200090000401908001CDE9064008AAF5
:101680000420542182E813000B906846FFF7CEFB3C
:1016900008B172B6FEE70CA90F2081E831004FF4C3
:1016A00080500F90109002210CA8FFF7D5FA002867
:1016B00001D072B6FEE713B030BD000040380240E2
:1016C000007000400248016841F4700101607047F9
:1016D00088ED00E010B5806B0021C185C184FFF763
:1016E00070FD10BD0168CA6822F49072CA6001687A
:1016F0004A6922F001024A61016B012904D10168A3
:10170000CA6822F01002CA60202180F83E10002131
:101710000163704710B5044690F83E00222801D0BE
:10172000022010BDA1684FF48052914201D120697E
:1017300020B1A06A91421BD049B10AE02168A06A99
:101740004968C1F308010180A06A801C08E0216992
:1017500071B12168496801F07F010170A06A401CE5
:10176000A062E08D401E0004000CE08503D01CE068
:1017700021684968F1E72068C16821F02001C16053
:101780002068C16821F48071C1602068416921F03E
:1017900001014161202084F83E00206B012806D021
:1017A0002046FFF7C7FE00202063002010BD206800
:1017B000C16821F01001C160A18D2046FFF700FD36
:1017C000F1E7000070B5044600680169E26821F4A1
:1017D0004051114301612169A068E26908436169D0
:1017E000114308432168CA6849F20C639A430243D3
:1017F000CA6020684169A26921F4407111434161C6
:1018000031492068884202D03049884202D1FFF72E
:10181000CDFA01E0FFF7BAFAE26900231921642545
:101820003226B2F5004F626828D0A0FB0101930F69
:101830009200FEF7CFFC0146B0FBF5F06FF0180206
:10184000504301EB800006EB0010B0FBF5F000F018
:10185000F002B1FBF5F002EB0012B1FBF5F06FF016
:101860001803584301EB800006EB0010B0FBF5F0C5
:1018700000F00F0021681044886070BDA0FB0101DA
:1018800092185B41FEF7A6FC0146B0FBF5F00201A1
:10189000B1FBF5F06FF01803584301EB800006EB45
:1018A000C000B0FBF5F000F0F80002EB4002B1FB25
:1018B000F5F0584301EB800006EBC000B0FBF5F0FB
:1018C00000F00700D6E700000010014000140140BE
:1018D00081628285C28500210164222280F83E2037
:1018E00080F83C100168CA6842F48072CA600168DE
:1018F0004A6942F001024A610068C16841F0200172
:10190000C1600020704700000148FFF75BBC000089
:10191000600000200148FFF755BC0000A400002033
:10192000FEE70907090E002804DB00F1E02080F83B
:101930000014704700F00F0000F1E02080F8141D43
:10194000704702E008C8121F08C1002AFAD1704788
:101950007047002001E001C1121F002AFBD170472F
:1019600008B5FFF7E7F8FFF765FE2E480024016889
:1019700041F080010160016801F08001009101687F
:1019800041F001010160016801F00101009101686D
:1019900041F0040101600068234900F00400009058
:1019A0002248234D0C260160C0E90154C460C0E9FF
:1019B00004468461C461FFF70DFD08B172B6FEE70D
:1019C0001A481C4944300160C0E90154C460C0E9B0
:1019D00004468461C461FFF7FDFC08B172B6FEE7FE
:1019E000FFF7F2FD1148012213494430FFF78CFD47
:1019F00011490122491C0D48FFF786FD0B48483864
:101A0000FEF7C2FE0C4C4FF47A75641EA0880A499A
:101A100020700122491E0548FFF7B4FD2846FEF755
:101A20007BFFF3E7303802400044004060000020B4
:101A300090D00300001401400100002000000000CD
:101A4000000000000102030406070809000000006E
:101A500001020304741A00080000002018000000AE
:101A6000421900088C1A000818000020D004000059
:101A700052190008200000000000000001000000D2
:0C1A800010000000000000000024F40032
:040000050800019955
:00000001FF
