:020000040800F2
:10000000C0040020B1010008BB1500082D15000830
:10001000B9150008810400086916000800000000F6
:10002000000000000000000000000000BF150008F4
:100030003505000800000000BD150008C1150008C6
:10004000CB010008CB010008CB010008CB01000860
:10005000CB010008CB010008CB010008CB01000850
:10006000CB010008CB010008CB010008CB01000840
:10007000CB010008CB010008CB010008CB01000830
:10008000CB010008CB0100084D0300080000000070
:10009000000000000000000000000000CB0100088C
:1000A000CB010008CB010008CB010008CB01000800
:1000B000CB010008CB010008CB010008CB010008F0
:1000C000CB010008CB010008CB010008CB010008E0
:1000D000CB010008CB010008CB01000800000000A4
:1000E000CB010008CB010008CB0100080000000094
:1000F000000000000000000000000000CB0100082C
:1001000000000000CB010008CB010008CB01000873
:1001100000000000000000000000000000000000DF
:1001200085040008CB010008CB010008CB010008C2
:10013000CB010008000000000000000000000000EB
:10014000000000000000000000000000CB010008DB
:10015000CB010008CB010008CB010008CB0100084F
:10016000CB010008CB0100080000000000000000E7
:10017000000000000000000000000000000000007F
:1001800000000000CB01000800000000000000009B
:10019000CB010008CB010008DFF810D000F07CF89C
:1001A00000480047A9160008AFF30080C0040020F3
:1001B0000648804706480047FEE7FEE7FEE7FEE701
:1001C000FEE7FEE7FEE7FEE7FEE7FEE7591600085A
:1001D000990100082DE9F05F0546002092469B46F4
:1001E00088460646814640241BE02846414647464D
:1001F000224600F041F853465A46C01A914110D3A6
:1002000011461846224600F028F82D1A67EB01081F
:100210004F4622460120002100F01FF817EB00098D
:100220004E41201EA4F10104DFDC484631462A4637
:100230004346BDE8F09FD2B201E000F8012B491E11
:10024000FBD270470022F6E710B513460A46044673
:100250001946FFF7F0FF204610BD202A04DB203AA4
:1002600000FA02F1002070479140C2F1200320FA09
:1002700003F3194390407047202A04DB203A21FA07
:1002800002F00021704721FA02F3D040C2F12002AF
:100290009140084319467047064C074D06E0E06858
:1002A00040F0010394E8070098471034AC42F6D3BD
:1002B000FFF776FF281700084817000810B5014619
:1002C000806B026C12F0500F05D0026CD20626D55E
:1002D00000F0E8F910BD016C41F40071016401689F
:1002E0008A6812F0405F17D1027EAAB9CA6A12F476
:1002F000700F02D08A6852050ED44A6822F020029C
:100300004A60016C21F480710164016CC90403D45A
:10031000016C41F00101016400F0C2F910BD806B75
:10032000C26CBDE810400846104710B5806B4021F4
:100330000164416C41F00401416400F0B3F910BD67
:1003400010B5806B00F0ADF910BD0000014800F061
:10035000AAB9000018000020464910B54A6822F4E6
:1003600040324A604A6843681A434A6001684A68F2
:1003700022F480724A6001684A68036942EA0322F3
:100380004A6001684A6822F040724A6001684A681F
:1003900083681A434A6001688A6822F400628A60AE
:1003A00001688A68C3681A438A60816A6FF0706264
:1003B000D14201688A6822F070628A6001688A68A6
:1003C0000CD0836A1A438A6001688A6822F040521E
:1003D0008A6001688A68C36A1A4301E022F04052C9
:1003E0008A6001688A6822F002028A6001688A686D
:1003F000037E42EA43028A6090F8201000290168D7
:100400004A680FD042F400624A6001684A6822F4E8
:1004100060424A6001684A68174C436A04EB433300
:100420001A4301E022F400624A600168CA6A22F4B9
:100430007002CA620168CA6A838B104C04EB0353D2
:100440001A43CA6201688A6822F400728A600168ED
:100450008A6890F8303042EA43228A6001688A68EC
:1004600022F480628A6001688A68406942EA8020DA
:10047000886010BD0023014000E0FFFF0000F0FF96
:10048000FEE70000014800F0BDBA00006000002057
:1004900001681823CAB2103AB2FBF3F2054B6FF3AE
:1004A0000901032A9B5CC36500D9091D81650846C3
:1004B000704700002017000810B5014600208B6926
:1004C0008A6A4FF0C07453B1B3F5005F15D072B1B2
:1004D000012A0CD0022A0AD0032A09D104E01AB159
:1004E000012A06D0022A03D1C96AC90100D5012018
:1004F00010BDC96AA142FAD010BD002AF7D0012A66
:10050000F2D0022AF3D0032AF3D010BD30B504682C
:10051000256825F480252560046863608368402B86
:10052000036803D099600068C26030BD9A600068BB
:10053000C16030BD704772B6FEE7704778B50024E1
:10054000009490F83C20012A19D0012280F83C2028
:100550000A6807230568092A13D9EE680A3A02EBEC
:10056000420293409E43EE600B788A680A3B03EB9D
:1005700043039A400368DD682A43DA6010E00220F2
:1005800078BD2E6902EB420293409E432E610B78A8
:100590008A6803EB43039A4003681D692A431A6182
:1005A0004A681F23072A13D205686E6B521E02EB9E
:1005B000820293409E436E630A8893B20A79521E68
:1005C00002EB820293400268556B2B43536327E092
:1005D00005680D2A12D22E6BD21F02EB82029340C5
:1005E0009E432E630B790A88DB1F92B203EB8303D1
:1005F0009A4003681D6B2A431A6311E0EE6A0D3AB4
:1006000002EB820293409E43EE620B790A880D3B17
:1006100092B203EB83039A400368DD6A2A43DA62ED
:100620001B4B0568194A9D420AD10D68122D07D14E
:10063000556825F400055560556845F480055560FA
:1006400005689D421DD1134D0B68AB4201D0112BA3
:1006500017D1536823F480035360536843F40003B5
:1006600053600968A9420CD10B490C4A0968B1FBD7
:10067000F2F101EB8101490000E0491E00910029DF
:10068000FBD180F83C40002078BD000000230140F1
:1006900000200140120000100800002040420F001E
:1006A00070477047704770B504460068016842683B
:1006B000C1F34001C2F3401251B34AB3216CC906E1
:1006C00003D4216C41F400712164816811F0405F12
:1006D00017D1217EA9B9C16A11F4700F02D08168C7
:1006E00049050ED4416821F020014160206C20F4BE
:1006F00080702064206CC00403D4206C40F00100A2
:1007000020642046FFF7CCFF21686FF012000860DC
:10071000206801684268C1F38001C2F3C01289B346
:1007200082B3216CC90603D4216C41F400512164C9
:10073000816811F4401F1ED1816B11F4401F02D05B
:100740008168490517D44168490514D4816811F0BE
:10075000405F10D1217E71B9416821F08001416074
:10076000206C20F480502064206CC00503D4206CE1
:1007700040F0010020642046FFF7DFFE21686FF0A3
:100780000C00086020680168426811F0010FC2F394
:1007900080120ED06AB10068C0070AD0206C40F405
:1007A00080302064204600F046F821686FF0010098
:1007B0000860206801684268C1F34011C2F380629A
:1007C00000290DD0002A0BD0616C41F00201616458
:1007D0006FF0200505602046FFF764FF2068056084
:1007E00070BD70B504004FF0000503D0206C0026EA
:1007F00010B107E0012070BD204600F01DF86664CE
:1008000084F83C60206CC00610D4206C20F4885022
:1008100040F0020020642046FFF79EFD6664206CD5
:1008200020F0020040F00100206400E0012584F87F
:100830003C60284670BD704770B586B006461421EE
:100840006846FFF7FFFC2149306888423CD12048C8
:100850000025016841F480710160006800F4807037
:1008600005901B481438016841F0010101600068DF
:10087000694600F001000590072000900320CDE9B3
:100880000105144800F030FA144C1348C4E900057F
:100890000015A560C4E90350400060618000A061BC
:1008A0004011C4E907052046656200F07BF908B1F4
:1008B000FFF741FEB463002211461220A66300F048
:1008C0006FFB122000F05EFB06B070BD00200140FF
:1008D00044380240000002401064024060000020E2
:1008E000F8B5044600200E46009094F83C1001290B
:1008F00007D0012184F83C1021688B68DB0702D007
:1009000011E00220F8BD8B6843F001038B6036498B
:10091000364B0968B1FBF3F101EB410100E0491EE0
:1009200000910029FBD121688B68DB0503D58B681A
:1009300023F480738B6021688B68DB0749D0236CBC
:1009400040F20165AB4343F4807323644968490571
:1009500005D5216C21F4005141F480512164216CB2
:10096000C90404D5616C21F00601616400E0606493
:1009700084F83C00A16B1F481D4DC863A16B1E4845
:100980000864A16B1D48C86421686FF022000860EC
:100990002068416841F0806141602068816841F4CD
:1009A000807181602168134632464C31A06B00F0A3
:1009B00063F96868C006206802D01149884210D1E6
:1009C000816811F0405F0CD1816841F08041816005
:1009D00007E0206C40F010002064606C40F00100E3
:1009E00060640020F8BD00000800002040420F00B5
:1009F00000230140BD020008410300082B0300084A
:100A0000002001402DE9F84304464FF00009CDF8DD
:100A1000009063484FF41651A56D0068B0FBF1F7E4
:100A20002E6894F85C10082000FA01F131420FD0D2
:100A300021680A6852070BD50A6822F004020A608E
:100A400094F85C108840A860606D40F0010060651B
:100A500094F85C104FF0010808FA01F0304208D019
:100A600021684969090604D5A860606D40F002005C
:100A7000606594F85C1004208840304208D02168FA
:100A80000968890704D5A860606D40F004006065BE
:100A900094F85C1010208840304218D02168096812
:100AA000090714D5A86020680168490304D50068C7
:100AB000000308D5A16C07E00168C90503D40168EB
:100AC00021F008010160216C09B12046884794F8A3
:100AD0005C1020208840304231D021680968C90666
:100AE0002DD5A86094F8350005282068016806D047
:100AF000490347D5006800031DD4616C1CE021F058
:100B0000160101602068416921F080014161206C7B
:100B100008B9A06C20B12068016821F008010160CB
:100B200094F85C103F208840A86084F8349084F8E2
:100B30003580216D1FE0E16B09B120468847606D6B
:100B400000282BD0606DC00714D0052084F8350034
:100B50002068016821F0010101600098401C0090AC
:100B6000B84203D820680068C007F6D184F83490F2
:100B700084F83580E16C002910D001B02046BDE832
:100B8000F04308470168C905D5D4016821F0100178
:100B9000016084F8349084F83580CCE7BDE8F883B0
:100BA000080000202DE9F041044600F08BF90646CC
:100BB0005CB1002584F83450022084F835002068A8
:100BC000016821F0010101600DE00120BDE8F08124
:100BD00000F078F9801B052805D9202060650320E6
:100BE00084F83500F2E720680068C007F0D1226879
:100BF000116820480140D4E901031843D4E90336C1
:100C00003343184363691843A3691843E3691843DE
:100C1000236A18430843616A042903D1D4E90B13FA
:100C200019430843106020684069666A20F0070194
:100C300030460E43012704280CD1A06A0643E06A1F
:100C400040B12046FFF738FC20B14020606584F8B1
:100C50003570BAE7206846612046FFF719FC94F822
:100C60005C203F2191408160656584F835700020EB
:100C7000ACE700003F8010F02DE9F0410446866D9E
:100C800090F83400002501280DD0012084F83400AC
:100C900094F835700020012F07D084F83400022525
:100CA0002846BDE8F0810220FBE7022784F8357072
:100CB00060652046FFF72AFC94F85C103F208840CE
:100CC000B0602068016841F016010160206C20B11D
:100CD0002068016841F0080101602068016841F066
:100CE00001010160DCE700002DE9F84FDFF8B4A155
:100CF000002201240AF1040B03254FF00F090BF128
:100D0000040E00BF0B6804FA02F63340B34272D1FE
:100D10000F7907F00307012F01D0022F16D1876842
:100D20004FEA420805FA08FC27EA0C07D1F80CC084
:100D30000CFA08FC4CEA070CC0F808C04768B74337
:100D40000E79C6F3001696403E4346600E79F64390
:100D5000B6070DD0C768560005FA06FC27EA0C074F
:100D6000D1F808C00CFA06FC4CEA070CC0F80CC01D
:100D70000E7906F00306022E10D1D60800EB860885
:100D8000D8F8206057074FEAD76C09FA0CF7BE4332
:100D90000F6907FA0CF73743C8F8207006684FEA66
:100DA000420C05FA0CF7BE430F7907F0030707FA68
:100DB0000CF7374307604E68F6006DD53A4E37683A
:100DC00047F480473760366822F0030706F4804610
:100DD0000096364E07EB060CDCF8086897073F0FC5
:100DE00009FA07F826EA0806DFF8C480404503D16F
:100DF0004FF000081EE04FE0DFF8B880404502D118
:100E00004FF0010816E0DFF8B080404502D14FF006
:100E100002080FE0DFF8A480404502D14FF003083C
:100E200008E0DFF89C80404502D14FF0040801E063
:100E30004FF0070808FA07F848EA0608CCF80888CF
:100E4000DAF800605746D1F804C09E435FEACC3C14
:100E500000D51E433E60DBF800605F46D1F804C059
:100E60009E435FEA8C3C00D51E433E60DEF8006086
:100E70007746D1F804C09E435FEACC2C00D51E43D0
:100E80003E60084F0C373E68D1F804C09E435FEACD
:100E90008C2C00D51E433E60521C102AFFF432AF4A
:100EA000BDE8F88F003C014044380240003001406A
:100EB000000002400004024000080240000C024012
:100EC0000010024001488068704700000C000020BC
:100ED0000248816802781144816070470C0000204C
:100EE0000B4810B5016841F400710160016841F4DC
:100EF00080610160016841F480710160032000F0AD
:100F00006FF8002000F006F800F024F8002010BD73
:100F1000003C024070B50D4D04464FF47A712878BC
:100F2000B1FBF0F00A490968B1FBF0F000F0EAFA11
:100F300048B9102C07D200222146501E00F030F88C
:100F400000206C6070BD012070BD00000C0000200E
:100F5000080000200A4808B5016841F4804101609A
:100F6000006800F4804000900548001F016841F0CF
:100F700080510160006800F08050009008BD0000C2
:100F800044380240002809DB00F01F020121914093
:100F90004009800000F1E020C0F800117047000017
:100FA000F0B40E4B1B680C46C3F30223C3F10705D4
:100FB000042D00D90425191D072901D2002300E0C2
:100FC000DB1E012606FA05F1491E214099409E408C
:100FD000761E16403143F0BC00F047BB0CED00E03C
:100FE000064900F0070208684FF6FF03184040EA80
:100FF0000220034A10430860704700000CED00E037
:101000000000FA052DE9F0470E46050065D0DFF82F
:101010001481D8F80000F7B200F00700B04207D200
:1010200088F80070D8F8000000F00700B04254D1F2
:1010300028683D4C810712D5400703D5206840F44D
:10104000E05020602878000703D5206840F4604015
:1010500020602068A96820F0F0000843206028780C
:10106000C0072DD0304968680839012812D00228FD
:1010700013D0032811D00968890700292DDA2168C7
:1010800021F0030101432160FFF71CFF814641F27B
:10109000883A0EE009688903EFE709688901ECE7FF
:1010A000FFF710FFA0EB0901514502D90320BDE86D
:1010B000F0872068696800F00C00B0EB810FEFD179
:1010C000D8F80010404601F00701B14207D9077077
:1010D000006800F00700B04201D00120E7E728785F
:1010E000400705D52068E96820F4E05008432060F7
:1010F0002878000706D52068296920F4604040EA76
:10110000C100206000F018F82168084AC1F30311FB
:10111000515CC8400649086006480068FFF7FAFEBF
:101120000020C4E7003C02400838024010170008C5
:101130000800002010000020154810B5006810F0CD
:101140000C02144813D04110042A0FD0082A0ED1E3
:101150000F4C241F2268236802F03F025B0207D570
:101160002068C0F38810A0FB010106E0084610BD0E
:101170002168C1F38811A1FB00010023FFF72AF8C1
:101180002168C1F30141491C4900B0FBF1F010BDD9
:10119000083802400024F4002DE9F84F04006ED016
:1011A0002078DFF84C93C007A9F104054AD009F173
:1011B00004000168C1F38101012908D00068C0F36F
:1011C000810002280AD1D9F80000400206D528681B
:1011D000800337D560680028E1D033E06068B0F55F
:1011E000803F10D0B0F5A02F286810D020F48030B8
:1011F0002860286820F4802028606068A8B1FFF784
:1012000061FE06460DE0286840F48030F4E740F4C3
:1012100080202860F7E700BFFFF754FE801B64289A
:1012200073D828688003F7D50CE0FFF74BFE06461D
:1012300005E000BFFFF746FE801B6428F0D8286851
:101240008003F7D42078DFF8AC8280074FF0000AE3
:101250003ED5A748001D016811F00C0F08D00068AA
:10126000C0F3810002280BD1D9F80000400207D456
:101270002868800716D5E068012800D112E033E124
:10128000E068B8B10120C8F80000FFF71BFE064671
:1012900005E000BFFFF716FE801B0228C0D82868B3
:1012A0008007F7D52868216920F0F80040EAC100DE
:1012B00028600DE0C8F800A0FFF704FE064604E031
:1012C000FFF700FE801B02281FD828688007F7D48C
:1012D0002078000722D5864F87486169703771B141
:1012E00001210160FFF7EEFD064604E0FFF7EAFD8D
:1012F000801B022809D838688007F7D50EE0C0F8AF
:1013000000A0FFF7DFFD064605E082E0FFF7DAFD0B
:10131000801B02287DD838688007F7D420784007E2
:1013200068D5DFF8CCB100270BF13C0BDBF80000EF
:10133000C0000BD4DBF8001041F08051CBF8001056
:10134000DBF80000012700F0805000906B4E306801
:10135000C00510D4306840F480703060FFF7B2FDF3
:10136000009005E0FFF7AEFD0099401A022850D822
:101370003068C005F6D55E4EA0686C3601280FD0E7
:101380000528306810D020F001003060306820F06F
:1013900004003060A068B8B1FFF794FD00900FE042
:1013A000306840F00100F4E740F004003060F7E7F7
:1013B000FFF788FD0099411A41F28830814266D8D2
:1013C00030688007F4D50EE0FFF77CFD009007E061
:1013D000FFF778FD0099411A41F28830814256D8D2
:1013E00030688007F4D42FB1DBF8001021F0805171
:1013F000CBF80010A069C8B33D49091D0968C1F3C5
:10140000810102294AD00228504607D0C8F860005E
:1014100000E03CE0FFF756FD04463BE04746C8F8D5
:101420006000FFF74FFD064605E000BFFFF74AFDED
:10143000801B02282BD828688001F7D4D4E9070143
:101440000843A16A2E4A490802EB0141626A41EA57
:101450008211084394F82C1040EA0161C9F8001089
:1014600001203866FFF72EFD044606E03EE000BF8F
:10147000FFF728FD001B022809D828688001F7D54E
:1014800034E000BFFFF71EFD001B022802D9032035
:10149000BDE8F88F28688001F4D427E00128F7D050
:1014A000D9F80000E26900F4800191421CD1226A5F
:1014B00000F03F01914217D147F6C071626A0140C6
:1014C000B1EB821F10D1A26A4FF0FF3300F440311C
:1014D00003EB5202B1EB024F06D194F82C1000F04E
:1014E0007060B0EB016F01D00120D1E70020CFE7A1
:1014F0000438024000004742800E4742007000401E
:101500000000FFFF10B5401EB0F1807F01D3012025
:1015100010BD4FF0E02460610F21601700F0A5F8C6
:101520000020A06107202061002010BDFEE7000020
:101530007FB500241E480094019402941B49039433
:10154000C0E90014012505618460057680F820401B
:101550001849C0E90A140326C661C46080F8304007
:101560004561FFF73EF908B172B6FEE70720009427
:10157000CDE9015069460E48FEF7E0FF08B172B6AA
:10158000FEE70224CDE9005469460948FEF7D6FF7C
:1015900008B172B6FEE7CDE9004669460448FEF799
:1015A000CDFF002801D072B6FEE77FBD00200140CC
:1015B000180000200100000FFEE7FEE770477047AB
:1015C000FFF786BC30B593B030216846FEF73AFE8F
:1015D00014210CA8FEF736FE1D480025016841F0D5
:1015E00080510160006800F0805011901948016836
:1015F00041F4404101600068022400F44040119031
:1016000001200090000401908001CDE906400420F3
:101610004821CDE908010621CDE90A106846FFF707
:10162000BBFD08B172B6FEE70CA90F2081E83100BE
:101630004FF480500F904FF4E050109000210CA810
:10164000FFF7E0FC002801D072B6FEE713B030BD12
:1016500040380240007000400248016841F47001C7
:101660000160704788ED00E0FEE70907090E0028D9
:1016700004DB00F1E02080F80014704700F00F0058
:1016800000F1E02080F8141D704702E008C8121F26
:1016900008C1002AFAD170477047002001E001C15B
:1016A000121F002AFBD1704708B5FFF719FCFFF79E
:1016B00089FF1448016841F080010160016801F070
:1016C00080010091016841F001010160016801F0B1
:1016D00001010091016841F480010160006800226D
:1016E00000F48000009011463820FFF759FC3820A4
:1016F000FFF748FCFFF71CFF012203490348FFF7EF
:10170000EFF8F9E730380240000000201800002010
:1017100000000000000000000102030406070809A1
:1017200000061016000610164817000800000020DA
:10173000180000008A160008601700081800002032
:10174000A80400009A160008000000000000000035
:101750000024F40001000000100000000000000060
:040000050800019955
:00000001FF
