:020000040800F2
:1000000058040020B1010008EB100008851000081A
:10001000E9100008F1030008951100080000000035
:10002000000000000000000000000000EF100008C9
:10003000F303000800000000ED100008F1100008B4
:10004000CB010008CB010008CB010008CB01000860
:10005000CB010008CB010008CB010008CB01000850
:10006000CB010008CB010008CB010008CB01000840
:10007000CB010008CB010008CB010008CB01000830
:10008000CB010008CB010008BD0200080000000001
:10009000000000000000000000000000CB0100088C
:1000A000CB010008CB010008CB010008CB01000800
:1000B000CB010008CB010008CB010008CB010008F0
:1000C000CB010008CB010008CB010008CB010008E0
:1000D000CB010008CB010008CB01000800000000A4
:1000E000CB010008CB010008CB0100080000000094
:1000F000000000000000000000000000CB0100082C
:1001000000000000CB010008CB010008CB01000873
:1001100000000000000000000000000000000000DF
:10012000CB010008CB010008CB010008CB0100087F
:10013000CB010008000000000000000000000000EB
:10014000000000000000000000000000CB010008DB
:10015000CB010008CB010008CB010008CB0100084F
:10016000CB010008CB0100080000000000000000E7
:10017000000000000000000000000000000000007F
:1001800000000000CB01000800000000000000009B
:10019000CB010008CB010008DFF810D000F07CF89C
:1001A00000480047D5110008AFF300805804002034
:1001B0000648804706480047FEE7FEE7FEE7FEE701
:1001C000FEE7FEE7FEE7FEE7FEE7FEE78511000833
:1001D000990100082DE9F05F0546002092469B46F4
:1001E00088460646814640241BE02846414647464D
:1001F000224600F041F853465A46C01A914110D3A6
:1002000011461846224600F028F82D1A67EB01081F
:100210004F4622460120002100F01FF817EB00098D
:100220004E41201EA4F10104DFDC484631462A4637
:100230004346BDE8F09FD2B201E000F8012B491E11
:10024000FBD270470022F6E710B513460A46044673
:100250001946FFF7F0FF204610BD202A04DB203AA4
:1002600000FA02F1002070479140C2F1200320FA09
:1002700003F3194390407047202A04DB203A21FA07
:1002800002F00021704721FA02F3D040C2F12002AF
:100290009140084319467047064C074D06E0E06858
:1002A00040F0010394E8070098471034AC42F6D3BD
:1002B000FFF776FF2412000844120008014800F0FE
:1002C0004FB9000010000020464910B54A6822F4DA
:1002D00040324A604A6843681A434A6001684A6883
:1002E00022F480724A6001684A68036942EA032284
:1002F0004A6001684A6822F040724A6001684A68B0
:1003000083681A434A6001688A6822F400628A603E
:1003100001688A68C3681A438A60816A6FF07062F4
:10032000D14201688A6822F070628A6001688A6836
:100330000CD0836A1A438A6001688A6822F04052AE
:100340008A6001688A68C36A1A4301E022F0405259
:100350008A6001688A6822F002028A6001688A68FD
:10036000037E42EA43028A6090F820100029016867
:100370004A680FD042F400624A6001684A6822F479
:1003800060424A6001684A68174C436A04EB433391
:100390001A4301E022F400624A600168CA6A22F44A
:1003A0007002CA620168CA6A838B104C04EB035363
:1003B0001A43CA6201688A6822F400728A6001687E
:1003C0008A6890F8303042EA43228A6001688A687D
:1003D00022F480628A6001688A68406942EA80206B
:1003E000886010BD0023014000E0FFFF0000F0FF27
:1003F000FEE770477047000078B50024009490F83D
:100400003C20012A19D0012280F83C200A680723E9
:100410000568092A13D9EE680A3A02EB42029340B2
:100420009E43EE600B788A680A3B03EB43039A40D5
:100430000368DD682A43DA6010E0022078BD2E6987
:1004400002EB420293409E432E610B788A6803EBD5
:1004500043039A4003681D692A431A614A681F23AF
:10046000072A13D205686E6B521E02EB820293407C
:100470009E436E630A8893B20A79521E02EB82028F
:1004800093400268556B2B43536327E005680D2AA0
:1004900012D22E6BD21F02EB820293409E432E6338
:1004A0000B790A88DB1F92B203EB83039A4003683F
:1004B0001D6B2A431A6311E0EE6A0D3A02EB8202C9
:1004C00093409E43EE620B790A880D3B92B203EB98
:1004D00083039A400368DD6A2A43DA621B4B05688E
:1004E000194A9D420AD10D68122D07D1556825F48D
:1004F00000055560556845F48005556005689D42C6
:100500001DD1134D0B68AB4201D0112B17D153688D
:1005100023F480035360536843F400035360096875
:10052000A9420CD10B490C4A0968B1FBF2F101EB6D
:100530008101490000E0491E00910029FBD180F8AB
:100540003C40002078BD0000002301400020014015
:10055000120000100C00002040420F00704770474E
:1005600070B50446006801684268C1F34001C2F3F7
:10057000401251B34AB3216CC90603D4216C41F433
:1005800000712164816811F0405F17D1217EA9B903
:10059000C16A11F4700F02D0816849050ED4416818
:1005A00021F020014160206C20F480702064206CD8
:1005B000C00403D4206C40F0010020642046FFF703
:1005C000CDFF21686FF01200086020680168426862
:1005D000C1F38001C2F3C01289B382B3216CC90692
:1005E00003D4216C41F400512164816811F4401F4F
:1005F0001ED1816B11F4401F02D08168490517D4C8
:100600004168490514D4816811F0405F10D1217E02
:1006100071B9416821F080014160206C20F4805064
:100620002064206CC00503D4206C40F001002064DD
:100630002046FFF7DFFE21686FF00C00086020689D
:100640000168426811F0010FC2F380120ED06AB146
:100650000068C0070AD0206C40F480302064204637
:1006600000F046F821686FF001000860206801681A
:100670004268C1F34011C2F3806200290DD0002A04
:100680000BD0616C41F0020161646FF020050560E0
:100690002046FFF764FF2068056070BD70B5040058
:1006A0004FF0000503D0206C002610B107E00120B8
:1006B00070BD204600F01EF8666484F83C60206C33
:1006C000C00610D4206C20F4885040F00200206452
:1006D0002046FFF7F9FD6664206C20F0020040F030
:1006E0000100206400E0012584F83C60284670BDCC
:1006F0007047000010B586B0044614216846FFF725
:10070000A1FD15492068884224D1144800210268BF
:1007100042F480720260006800F4807005900F4817
:100720001438026842F001020260006800F0010023
:100730000590012000900320CDE901016946084899
:1007400000F07EF800221146122000F0D5F91220A8
:1007500000F0C4F906B010BD00200140443802404A
:100760000000024018B50021009190F83C20012AB9
:1007700007D0012280F83C2002689368DB0702D092
:1007800011E0022018BD936843F001039360274AEB
:10079000274B1268B2FBF3F202EB420200E0521E5A
:1007A0000092002AFBD102689368DB0733D0036C08
:1007B00040F20164A34343F48073036453685B0510
:1007C00005D5036C23F4005343F480530364036C96
:1007D000DB0404D5436C23F00603436400E041646A
:1007E00080F83C10134B6FF02201116001684A68D9
:1007F000114C22434A6059680068C90602D00F496B
:10080000884210D1816811F0405F0CD1816841F0BD
:100810008041816007E0016C41F010010164416C8E
:1008200041F001014164002018BD00000C000020CF
:1008300040420F000023014020000004002001403E
:100840002DE9F84FDFF8B4A1002201240AF1040BCE
:1008500003254FF00F090BF1040E00BF0B6804FADB
:1008600002F63340B34272D10F7907F00307012F2C
:1008700001D0022F16D187684FEA420805FA08FC1A
:1008800027EA0C07D1F80CC00CFA08FC4CEA070C5C
:10089000C0F808C04768B7430E79C6F30016964003
:1008A0003E4346600E79F643B6070DD0C768560042
:1008B00005FA06FC27EA0C07D1F808C00CFA06FC7A
:1008C0004CEA070CC0F80CC00E7906F00306022EA5
:1008D00010D1D60800EB8608D8F8206057074FEAF9
:1008E000D76C09FA0CF7BE430F6907FA0CF73743C8
:1008F000C8F8207006684FEA420C05FA0CF7BE43B0
:100900000F7907F0030707FA0CF7374307604E68C3
:10091000F6006DD53A4E376847F480473760366841
:1009200022F0030706F480460096364E07EB060CCD
:10093000DCF8086897073F0F09FA07F826EA080667
:10094000DFF8C480404503D14FF000081EE04FE0BF
:10095000DFF8B880404502D14FF0010816E0DFF81B
:10096000B080404502D14FF002080FE0DFF8A480CC
:10097000404502D14FF0030808E0DFF89C80404575
:1009800002D14FF0040801E04FF0070808FA07F819
:1009900048EA0608CCF80888DAF800605746D1F82B
:1009A00004C09E435FEACC3C00D51E433E60DBF8AA
:1009B00000605F46D1F804C09E435FEA8C3C00D5DE
:1009C0001E433E60DEF800607746D1F804C09E43C7
:1009D0005FEACC2C00D51E433E60084F0C373E68C2
:1009E000D1F804C09E435FEA8C2C00D51E433E60C4
:1009F000521C102AFFF432AFBDE8F88F003C0140D2
:100A0000443802400030014000000240000402402F
:100A100000080240000C02400010024001488068BB
:100A200070470000000000200248816802781144ED
:100A300081607047000000200B4810B5016841F448
:100A400000710160016841F480610160016841F456
:100A500080710160032000F06FF8002000F006F8BC
:100A600000F024F8002010BD003C024070B50D4D90
:100A700004464FF47A712878B1FBF0F00A4909680E
:100A8000B1FBF0F000F0EAFA48B9102C07D20022CE
:100A90002146501E00F030F800206C6070BD01202F
:100AA00070BD0000000000200C0000200A4808B5BE
:100AB000016841F480410160006800F480400090CA
:100AC0000548001F016841F080510160006800F096
:100AD0008050009008BD000044380240002809DB27
:100AE00000F01F02012191404009800000F1E02048
:100AF000C0F8001170470000F0B40E4B1B680C46A4
:100B0000C3F30223C3F10705042D00D90425191DE1
:100B1000072901D2002300E0DB1E012606FA05F1B9
:100B2000491E214099409E40761E16403143F0BC3C
:100B300000F031BB0CED00E0064900F00702086848
:100B40004FF6FF03184040EA0220034A10430860B2
:100B5000704700000CED00E00000FA052DE9F047B9
:100B60000E46050065D0DFF81481D8F80000F7B212
:100B700000F00700B04207D288F80070D8F80000F3
:100B800000F00700B04254D128683D4C810712D5CF
:100B9000400703D5206840F4E05020602878000723
:100BA00003D5206840F4604020602068A96820F0E8
:100BB000F000084320602878C0072DD030496868CD
:100BC0000839012812D0022813D0032811D009684F
:100BD000890700292DDA216821F0030101432160F2
:100BE000FFF71CFF814641F2883A0EE0096889034D
:100BF000EFE709688901ECE7FFF710FFA0EB0901B7
:100C0000514502D90320BDE8F0872068696800F0EB
:100C10000C00B0EB810FEFD1D8F80010404601F086
:100C20000701B14207D90770006800F00700B04221
:100C300001D00120E7E72878400705D52068E9685A
:100C400020F4E050084320602878000706D520688B
:100C5000296920F4604040EAC100206000F018F8E3
:100C60002168084AC1F30311515CC8400649086075
:100C700006480068FFF7FAFE0020C4E7003C024087
:100C800008380240141200080C0000200400002064
:100C9000154810B5006810F00C02144813D041102C
:100CA000042A0FD0082A0ED10F4C241F2268236873
:100CB00002F03F025B0207D52068C0F38810A0FB5A
:100CC000010106E0084610BD2168C1F38811A1FBAF
:100CD00000010023FFF77EFA2168C1F30141491C9E
:100CE0004900B0FBF1F010BD083802400024F400C8
:100CF0002DE9F84F04006ED02078DFF84C93C00740
:100D0000A9F104054AD009F104000168C1F3810189
:100D1000012908D00068C0F3810002280AD1D9F85F
:100D20000000400206D52868800337D56068002897
:100D3000E1D033E06068B0F5803F10D0B0F5A02F6F
:100D4000286810D020F480302860286820F48020A3
:100D500028606068A8B1FFF761FE06460DE02868CC
:100D600040F48030F4E740F480202860F7E700BFCB
:100D7000FFF754FE801B642873D828688003F7D5DA
:100D80000CE0FFF74BFE064605E000BFFFF746FE0E
:100D9000801B6428F0D828688003F7D42078DFF817
:100DA000AC8280074FF0000A3ED5A748001D0168BD
:100DB00011F00C0F08D00068C0F3810002280BD19D
:100DC000D9F80000400207D42868800716D5E068EB
:100DD000012800D112E033E1E068B8B10120C8F881
:100DE0000000FFF71BFE064605E000BFFFF716FEFA
:100DF000801B0228C0D828688007F7D52868216999
:100E000020F0F80040EAC10028600DE0C8F800A01A
:100E1000FFF704FE064604E0FFF700FE801B0228F1
:100E20001FD828688007F7D42078000722D5864F7E
:100E300087486169703771B101210160FFF7EEFDEC
:100E4000064604E0FFF7EAFD801B022809D838684F
:100E50008007F7D50EE0C0F800A0FFF7DFFD0646DB
:100E600005E082E0FFF7DAFD801B02287DD83868B4
:100E70008007F7D42078400768D5DFF8CCB1002789
:100E80000BF13C0BDBF80000C0000BD4DBF80010CA
:100E900041F08051CBF80010DBF80000012700F092
:100EA000805000906B4E3068C00510D4306840F41C
:100EB00080703060FFF7B2FD009005E0FFF7AEFDF7
:100EC0000099401A022850D83068C005F6D55E4E09
:100ED000A0686C3601280FD00528306810D020F0AB
:100EE00001003060306820F004003060A068B8B1C4
:100EF000FFF794FD00900FE0306840F00100F4E748
:100F000040F004003060F7E7FFF788FD0099411AD0
:100F100041F28830814266D830688007F4D50EE00F
:100F2000FFF77CFD009007E0FFF778FD0099411A7C
:100F300041F28830814256D830688007F4D42FB10E
:100F4000DBF8001021F08051CBF80010A069C8B385
:100F50003D49091D0968C1F3810102294AD00228CF
:100F6000504607D0C8F8600000E03CE0FFF756FDAF
:100F700004463BE04746C8F86000FFF74FFD0646D1
:100F800005E000BFFFF74AFD801B02282BD8286828
:100F90008001F7D4D4E907010843A16A2E4A490821
:100FA00002EB0141626A41EA8211084394F82C1075
:100FB00040EA0161C9F8001001203866FFF72EFDF4
:100FC000044606E03EE000BFFFF728FD001B0228B4
:100FD00009D828688001F7D534E000BFFFF71EFD6F
:100FE000001B022802D90320BDE8F88F2868800181
:100FF000F4D427E00128F7D0D9F80000E26900F422
:10100000800191421CD1226A00F03F01914217D128
:1010100047F6C071626A0140B1EB821F10D1A26A2B
:101020004FF0FF3300F4403103EB5202B1EB024FBB
:1010300006D194F82C1000F07060B0EB016F01D075
:101040000120D1E70020CFE70438024000004742EA
:10105000800E4742007000400000FFFF10B5401EA8
:10106000B0F1807F01D3012010BD4FF0E02460611A
:101070000F21601700F08FF80020A0610720206189
:10108000002010BDFEE700007FB500241448009446
:101090000194029411490394C0E90014846001256D
:1010A0000461057680F820400E49C0E90A14C56144
:1010B000C46080F830404561FFF7F0FA08B172B6BD
:1010C000FEE706200094CDE9015069460448FFF789
:1010D00093F9002801D072B6FEE77FBD00200140E1
:1010E000100000200100000FFEE7FEE77047704788
:1010F000FFF79ABC30B593B030216846FFF7A2F8ED
:1011000014210CA8FFF79EF81C480025016841F047
:1011100080510160006800F080501190184801680B
:1011200041F4404101600068022400F44040119005
:1011300001200090000401908001CDE9064008AA3A
:101140000420542182E813000B906846FFF7D0FD7D
:1011500008B172B6FEE70CA90F2081E831004FF408
:1011600080500F90109002210CA8FFF7F7FC002888
:1011700001D072B6FEE713B030BD00004038024027
:10118000007000400248016841F47001016070473E
:1011900088ED00E0FEE70907090E002804DB00F1F6
:1011A000E02080F80014704700F00F0000F1E0200C
:1011B00080F8141D704702E008C8121F08C1002AF9
:1011C000FAD170477047002001E001C1121F002AC8
:1011D000FBD1704708B5FFF72FFCFFF78BFF0B48DB
:1011E000016841F080010160016801F08001009117
:1011F000016841F001010160006800F00100009009
:10120000FFF742FF0248FFF7ADFAFEE73038024031
:101210001000002000000000000000000102030494
:101220000607080944120008000000201000000012
:10123000B6110008541200081000002048040000F5
:10124000C6110008010000001000000000000000AE
:041250000024F40082
:040000050800019955
:00000001FF
